{
  "contractName": "BaseStorage",
  "abi": [
    {
      "inputs": [],
      "name": "controllerAddr",
      "outputs": [
        {
          "internalType": "address",
          "name": "",
          "type": "address"
        }
      ],
      "stateMutability": "view",
      "type": "function"
    },
    {
      "inputs": [
        {
          "internalType": "address",
          "name": "_newOwner",
          "type": "address"
        }
      ],
      "name": "transferOwnership",
      "outputs": [],
      "stateMutability": "nonpayable",
      "type": "function"
    },
    {
      "inputs": [
        {
          "internalType": "address",
          "name": "_controllerAddr",
          "type": "address"
        }
      ],
      "name": "setControllerAddr",
      "outputs": [],
      "stateMutability": "nonpayable",
      "type": "function"
    }
  ],
  "bytecode": "0x608060405234801561001057600080fd5b50336000806101000a81548173ffffffffffffffffffffffffffffffffffffffff021916908373ffffffffffffffffffffffffffffffffffffffff160217905550610323806100606000396000f3fe608060405234801561001057600080fd5b50600436106100415760003560e01c80636981fa7d14610046578063ee255c5714610062578063f2fde38b14610080575b600080fd5b610060600480360381019061005b9190610296565b61009c565b005b61006a610138565b60405161007791906102d2565b60405180910390f35b61009a60048036038101906100959190610296565b61015e565b005b60008054906101000a900473ffffffffffffffffffffffffffffffffffffffff1673ffffffffffffffffffffffffffffffffffffffff163373ffffffffffffffffffffffffffffffffffffffff16146100f457600080fd5b80600160006101000a81548173ffffffffffffffffffffffffffffffffffffffff021916908373ffffffffffffffffffffffffffffffffffffffff16021790555050565b600160009054906101000a900473ffffffffffffffffffffffffffffffffffffffff1681565b60008054906101000a900473ffffffffffffffffffffffffffffffffffffffff1673ffffffffffffffffffffffffffffffffffffffff163373ffffffffffffffffffffffffffffffffffffffff16146101b657600080fd5b600073ffffffffffffffffffffffffffffffffffffffff168173ffffffffffffffffffffffffffffffffffffffff1614156101f057600080fd5b806000806101000a81548173ffffffffffffffffffffffffffffffffffffffff021916908373ffffffffffffffffffffffffffffffffffffffff16021790555050565b600080fd5b600073ffffffffffffffffffffffffffffffffffffffff82169050919050565b600061026382610238565b9050919050565b61027381610258565b811461027e57600080fd5b50565b6000813590506102908161026a565b92915050565b6000602082840312156102ac576102ab610233565b5b60006102ba84828501610281565b91505092915050565b6102cc81610258565b82525050565b60006020820190506102e760008301846102c3565b9291505056fea264697066735822122003d4dde84e214cd22a09cacb883b2808d18f8232eec766e4c98600b8735b63bf64736f6c634300080b0033",
  "immutableReferences": {},
  "source": "pragma solidity ^0.8.11;\r\n\r\nimport './Owned.sol';\r\n\r\ncontract BaseStorage is Owned {\r\n    address public controllerAddr;\r\n\r\n    modifier onlyController() {\r\n        require(msg.sender == controllerAddr);\r\n        _;\r\n    }\r\n    \r\n    function setControllerAddr(address _controllerAddr) public onlyOwner{\r\n        controllerAddr = _controllerAddr;\r\n    }\r\n}",
  "sourcePath": "C:\\Users\\Cassady\\Documents\\GitHub\\tweether\\contracts\\helpers\\BaseStorage.sol",
  "compiler": {
    "name": "solc",
    "version": "0.8.11+commit.d7f03943.Emscripten.clang"
  },
  "schemaVersion": "3.4.4",
  "updatedAt": "2022-01-06T04:27:38.928Z",
  "devdoc": {
    "kind": "dev",
    "methods": {},
    "version": 1
  },
  "userdoc": {
    "kind": "user",
    "methods": {},
    "version": 1
  }
}