{
  "contractName": "TweetController",
  "abi": [
    {
      "inputs": [
        {
          "internalType": "address",
          "name": "_managerAddr",
          "type": "address"
        }
      ],
      "name": "setManagerAddr",
      "outputs": [],
      "stateMutability": "nonpayable",
      "type": "function"
    },
    {
      "inputs": [
        {
          "internalType": "address",
          "name": "_newOwner",
          "type": "address"
        }
      ],
      "name": "transferOwnership",
      "outputs": [],
      "stateMutability": "nonpayable",
      "type": "function"
    },
    {
      "inputs": [
        {
          "internalType": "uint256",
          "name": "_userId",
          "type": "uint256"
        },
        {
          "internalType": "string",
          "name": "text",
          "type": "string"
        }
      ],
      "name": "createTweet",
      "outputs": [
        {
          "internalType": "uint256",
          "name": "",
          "type": "uint256"
        }
      ],
      "stateMutability": "nonpayable",
      "type": "function"
    }
  ],
  "bytecode": "0x608060405234801561001057600080fd5b50336000806101000a81548173ffffffffffffffffffffffffffffffffffffffff021916908373ffffffffffffffffffffffffffffffffffffffff1602179055506107d0806100606000396000f3fe608060405234801561001057600080fd5b50600436106100415760003560e01c80637978b231146100465780637cc82f2014610062578063f2fde38b14610092575b600080fd5b610060600480360381019061005b91906103c3565b6100ae565b005b61007c6004803603810190610077919061056c565b61014a565b60405161008991906105d7565b60405180910390f35b6100ac60048036038101906100a791906103c3565b61027c565b005b60008054906101000a900473ffffffffffffffffffffffffffffffffffffffff1673ffffffffffffffffffffffffffffffffffffffff163373ffffffffffffffffffffffffffffffffffffffff161461010657600080fd5b80600160006101000a81548173ffffffffffffffffffffffffffffffffffffffff021916908373ffffffffffffffffffffffffffffffffffffffff16021790555050565b600080600160009054906101000a900473ffffffffffffffffffffffffffffffffffffffff16905060008173ffffffffffffffffffffffffffffffffffffffff1663bf40fac16040518163ffffffff1660e01b81526004016101ab9061064f565b602060405180830381865afa1580156101c8573d6000803e3d6000fd5b505050506040513d601f19601f820116820180604052508101906101ec9190610684565b905060008190508073ffffffffffffffffffffffffffffffffffffffff16637cc82f2087876040518363ffffffff1660e01b815260040161022e929190610728565b6020604051808303816000875af115801561024d573d6000803e3d6000fd5b505050506040513d601f19601f82011682018060405250810190610271919061076d565b935050505092915050565b60008054906101000a900473ffffffffffffffffffffffffffffffffffffffff1673ffffffffffffffffffffffffffffffffffffffff163373ffffffffffffffffffffffffffffffffffffffff16146102d457600080fd5b600073ffffffffffffffffffffffffffffffffffffffff168173ffffffffffffffffffffffffffffffffffffffff16141561030e57600080fd5b806000806101000a81548173ffffffffffffffffffffffffffffffffffffffff021916908373ffffffffffffffffffffffffffffffffffffffff16021790555050565b6000604051905090565b600080fd5b600080fd5b600073ffffffffffffffffffffffffffffffffffffffff82169050919050565b600061039082610365565b9050919050565b6103a081610385565b81146103ab57600080fd5b50565b6000813590506103bd81610397565b92915050565b6000602082840312156103d9576103d861035b565b5b60006103e7848285016103ae565b91505092915050565b6000819050919050565b610403816103f0565b811461040e57600080fd5b50565b600081359050610420816103fa565b92915050565b600080fd5b600080fd5b6000601f19601f8301169050919050565b7f4e487b7100000000000000000000000000000000000000000000000000000000600052604160045260246000fd5b61047982610430565b810181811067ffffffffffffffff8211171561049857610497610441565b5b80604052505050565b60006104ab610351565b90506104b78282610470565b919050565b600067ffffffffffffffff8211156104d7576104d6610441565b5b6104e082610430565b9050602081019050919050565b82818337600083830152505050565b600061050f61050a846104bc565b6104a1565b90508281526020810184848401111561052b5761052a61042b565b5b6105368482856104ed565b509392505050565b600082601f83011261055357610552610426565b5b81356105638482602086016104fc565b91505092915050565b600080604083850312156105835761058261035b565b5b600061059185828601610411565b925050602083013567ffffffffffffffff8111156105b2576105b1610360565b5b6105be8582860161053e565b9150509250929050565b6105d1816103f0565b82525050565b60006020820190506105ec60008301846105c8565b92915050565b600082825260208201905092915050565b7f547765657453746f726167650000000000000000000000000000000000000000600082015250565b6000610639600c836105f2565b915061064482610603565b602082019050919050565b600060208201905081810360008301526106688161062c565b9050919050565b60008151905061067e81610397565b92915050565b60006020828403121561069a5761069961035b565b5b60006106a88482850161066f565b91505092915050565b600081519050919050565b60005b838110156106da5780820151818401526020810190506106bf565b838111156106e9576000848401525b50505050565b60006106fa826106b1565b61070481856105f2565b93506107148185602086016106bc565b61071d81610430565b840191505092915050565b600060408201905061073d60008301856105c8565b818103602083015261074f81846106ef565b90509392505050565b600081519050610767816103fa565b92915050565b6000602082840312156107835761078261035b565b5b600061079184828501610758565b9150509291505056fea26469706673582212202b1e21569bceda395a44298a281b062acf627694b5b0027207094e076075b5e264736f6c634300080b0033",
  "immutableReferences": {},
  "source": "pragma solidity ^0.8.11;\r\n\r\nimport '../helpers/BaseController.sol';\r\nimport '../ContractManager.sol';\r\nimport './TweetStorage.sol';\r\n\r\ncontract TweetController is BaseController {\r\n    function createTweet(uint _userId, string memory text) public returns (uint) {\r\n        ContractManager _manager = ContractManager(managerAddr);\r\n\r\n        address _tweetStorageAddr = _manager.getAddress(\"TweetStorage\");\r\n        TweetStorage _tweetStorage = TweetStorage(_tweetStorageAddr);\r\n\r\n        return _tweetStorage.createTweet(_userId, text);\r\n    }\r\n}",
  "sourcePath": "C:\\Users\\Cassady\\Documents\\GitHub\\tweether\\contracts\\tweets\\TweetController.sol",
  "compiler": {
    "name": "solc",
    "version": "0.8.11+commit.d7f03943.Emscripten.clang"
  },
  "schemaVersion": "3.4.4",
  "updatedAt": "2022-01-06T04:27:55.608Z",
  "networkType": "ethereum",
  "devdoc": {
    "kind": "dev",
    "methods": {},
    "version": 1
  },
  "userdoc": {
    "kind": "user",
    "methods": {},
    "version": 1
  }
}