{
  "contractName": "UserStorage",
  "abi": [
    {
      "inputs": [],
      "name": "controllerAddr",
      "outputs": [
        {
          "internalType": "address",
          "name": "",
          "type": "address"
        }
      ],
      "stateMutability": "view",
      "type": "function",
      "constant": true
    },
    {
      "inputs": [
        {
          "internalType": "uint256",
          "name": "",
          "type": "uint256"
        }
      ],
      "name": "profiles",
      "outputs": [
        {
          "internalType": "uint256",
          "name": "id",
          "type": "uint256"
        },
        {
          "internalType": "bytes32",
          "name": "username",
          "type": "bytes32"
        }
      ],
      "stateMutability": "view",
      "type": "function",
      "constant": true
    },
    {
      "inputs": [
        {
          "internalType": "address",
          "name": "_controllerAddr",
          "type": "address"
        }
      ],
      "name": "setControllerAddr",
      "outputs": [],
      "stateMutability": "nonpayable",
      "type": "function"
    },
    {
      "inputs": [
        {
          "internalType": "address",
          "name": "_newOwner",
          "type": "address"
        }
      ],
      "name": "transferOwnership",
      "outputs": [],
      "stateMutability": "nonpayable",
      "type": "function"
    },
    {
      "inputs": [
        {
          "internalType": "bytes32",
          "name": "_username",
          "type": "bytes32"
        }
      ],
      "name": "createUser",
      "outputs": [
        {
          "internalType": "uint256",
          "name": "",
          "type": "uint256"
        }
      ],
      "stateMutability": "nonpayable",
      "type": "function"
    }
  ],
  "bytecode": "0x6080604052600060035534801561001557600080fd5b50336000806101000a81548173ffffffffffffffffffffffffffffffffffffffff021916908373ffffffffffffffffffffffffffffffffffffffff160217905550610619806100656000396000f3fe608060405234801561001057600080fd5b50600436106100575760003560e01c80636981fa7d1461005c578063abf7bfd814610078578063c36fe3d6146100a8578063ee255c57146100d9578063f2fde38b146100f7575b600080fd5b610076600480360381019061007191906103ec565b610113565b005b610092600480360381019061008d919061044f565b6101af565b60405161009f9190610495565b60405180910390f35b6100c260048036038101906100bd91906104dc565b61026a565b6040516100d0929190610518565b60405180910390f35b6100e161028e565b6040516100ee9190610550565b60405180910390f35b610111600480360381019061010c91906103ec565b6102b4565b005b60008054906101000a900473ffffffffffffffffffffffffffffffffffffffff1673ffffffffffffffffffffffffffffffffffffffff163373ffffffffffffffffffffffffffffffffffffffff161461016b57600080fd5b80600160006101000a81548173ffffffffffffffffffffffffffffffffffffffff021916908373ffffffffffffffffffffffffffffffffffffffff16021790555050565b6000600160009054906101000a900473ffffffffffffffffffffffffffffffffffffffff1673ffffffffffffffffffffffffffffffffffffffff163373ffffffffffffffffffffffffffffffffffffffff161461020b57600080fd5b6040518060400160405280600354815260200183815250600260006003600081546102359061059a565b919050819055815260200190815260200160002060008201518160000155602082015181600101559050506003549050919050565b60026020528060005260406000206000915090508060000154908060010154905082565b600160009054906101000a900473ffffffffffffffffffffffffffffffffffffffff1681565b60008054906101000a900473ffffffffffffffffffffffffffffffffffffffff1673ffffffffffffffffffffffffffffffffffffffff163373ffffffffffffffffffffffffffffffffffffffff161461030c57600080fd5b600073ffffffffffffffffffffffffffffffffffffffff168173ffffffffffffffffffffffffffffffffffffffff16141561034657600080fd5b806000806101000a81548173ffffffffffffffffffffffffffffffffffffffff021916908373ffffffffffffffffffffffffffffffffffffffff16021790555050565b600080fd5b600073ffffffffffffffffffffffffffffffffffffffff82169050919050565b60006103b98261038e565b9050919050565b6103c9816103ae565b81146103d457600080fd5b50565b6000813590506103e6816103c0565b92915050565b60006020828403121561040257610401610389565b5b6000610410848285016103d7565b91505092915050565b6000819050919050565b61042c81610419565b811461043757600080fd5b50565b60008135905061044981610423565b92915050565b60006020828403121561046557610464610389565b5b60006104738482850161043a565b91505092915050565b6000819050919050565b61048f8161047c565b82525050565b60006020820190506104aa6000830184610486565b92915050565b6104b98161047c565b81146104c457600080fd5b50565b6000813590506104d6816104b0565b92915050565b6000602082840312156104f2576104f1610389565b5b6000610500848285016104c7565b91505092915050565b61051281610419565b82525050565b600060408201905061052d6000830185610486565b61053a6020830184610509565b9392505050565b61054a816103ae565b82525050565b60006020820190506105656000830184610541565b92915050565b7f4e487b7100000000000000000000000000000000000000000000000000000000600052601160045260246000fd5b60006105a58261047c565b91507fffffffffffffffffffffffffffffffffffffffffffffffffffffffffffffffff8214156105d8576105d761056b565b5b60018201905091905056fea2646970667358221220fdcb330702752dcdfef59ea595c61a7cfafd3d15318129742c61c70f30785be164736f6c634300080b0033",
  "immutableReferences": {},
  "source": "pragma solidity ^0.8.11;\r\n\r\nimport '../helpers/BaseStorage.sol';\r\n\r\ncontract UserStorage is BaseStorage {\r\n    mapping(uint => Profile) public profiles;\r\n    \r\n    struct Profile {\r\n        uint id;\r\n        bytes32 username;\r\n    }\r\n\r\n    uint latestUserId = 0;\r\n\r\n\r\n    function createUser(bytes32 _username) public onlyController returns(uint) {\r\n        profiles[++latestUserId] = Profile(latestUserId, _username);\r\n        return latestUserId;\r\n    }\r\n}",
  "sourcePath": "C:\\Users\\Cassady\\Documents\\GitHub\\tweether\\contracts\\users\\UserStorage.sol",
  "compiler": {
    "name": "solc",
    "version": "0.8.11+commit.d7f03943.Emscripten.clang"
  },
  "schemaVersion": "3.4.4",
  "updatedAt": "2022-01-05T04:07:58.384Z",
  "networkType": "ethereum",
  "devdoc": {
    "kind": "dev",
    "methods": {},
    "version": 1
  },
  "userdoc": {
    "kind": "user",
    "methods": {},
    "version": 1
  }
}